:100000000C942A000C943F000C943F000C943F0089
:100010000C943F000C943F000C943F000C943F0064
:100020000C943F000C943F000C943F000C943F0054
:100030000C943F000C943F000C943F000C943F0044
:100040000C943F000C943F000C943F000C943F0034
:100050000C943F0011241FBECFE5D4E0DEBFCDBF1E
:1000600010E0A0E6B0E0E2E1F8E202C005900D92F7
:10007000A438B107D9F70E94F4120C9407140C9419
:100080000000EF92FF920F931F937B018C0120E001
:1000900030E040E05FE40E94ED0388238CF0C8016B
:1000A000B70120E030E040E05FE40E94B9010E9427
:1000B0004D049B01AC01205030404040504806C0E8
:1000C000C801B7010E944D049B01AC01B901CA01EE
:1000D0001F910F91FF90EF900895A0E0B0E0E3E74B
:1000E000F0E00C94D013DC012B01FA019C919230CA
:1000F00008F439C1EB018881823008F433C19430AF
:1001000069F4843009F02FC111969C91119789816F
:10011000981709F428C1A0E6B0E025C1843009F49D
:1001200021C18230A9F4923009F01DC19A01AD01BC
:1001300088E0EA010990AE01E90109929E0181502F
:10014000C1F7E201898111969C918923818308C1BD
:10015000923009F407C112962D903C901397EB0151
:100160008A819B811496AD90BD90CD90DC901797BD
:10017000EC80FD800E811F819101281B390BB90194
:1001800037FF04C066277727621B730B6032710547
:100190000CF061C0121613066CF537014801062EEB
:1001A00004C096948794779467940A94D2F721E0D8
:1001B00030E040E050E004C0220F331F441F551FC1
:1001C0006A95D2F721503040404050402E213F21C7
:1001D00040235123211531054105510521F021E02E
:1001E00030E040E050E079018A01E628F72808294C
:1001F00019293CC0232BD1F1260E371E35014601AB
:10020000062E04C096948794779467940A94D2F744
:1002100021E030E040E050E004C0220F331F441FD3
:10022000551F6A95D2F721503040404050402A2156
:100230003B214C215D21211531054105510521F05E
:1002400021E030E040E050E059016A01A628B728DB
:10025000C828D9280BC0821593052CF01C01AA24AC
:10026000BB24650103C0EE24FF24870111969C91F5
:10027000D20111968C91981709F445C0992339F051
:10028000A80197012A193B094C095D0906C0A6017E
:1002900095012E193F09400B510B57FD08C01182E3
:1002A0003382228224833583468357831DC081E0B5
:1002B00081833382228288279927DC01821B930B5A
:1002C000A40BB50B84839583A683B7830DC0220F3F
:1002D000331F441F551F24833583468357838281F0
:1002E000938101979383828324813581468157814D
:1002F000DA01C9010197A109B1098F5F9F4FAF4F83
:10030000BF4328F30BC0918333822282EA0CFB1C8B
:100310000C1D1D1DE482F5820683178383E0808314
:10032000248135814681578157FF1AC0C901AA2708
:1003300097FDA095BA2F81709070A070B0705695FF
:10034000479537952795822B932BA42BB52B848328
:100350009583A683B7838281938101969383828359
:10036000DF0101C0D201CD01CDB7DEB7E2E10C94CF
:10037000EC13A0E2B0E0EFEBF1E00C94DC13698346
:100380007A838B839C832D833E834F835887E9E058
:10039000EE2EF12CEC0EFD1ECE010196B7010E944F
:1003A00076058E010F5E1F4FCE010596B8010E94A3
:1003B00076058A8991E089278A8BC701B801AE0149
:1003C000475E5F4F0E946D000E94A104A096E6E088
:1003D0000C94F813A0E2B0E0E0EFF1E00C94DC1331
:1003E00069837A838B839C832D833E834F835887D5
:1003F000F9E0EF2EF12CEC0EFD1ECE010196B701B7
:100400000E9476058E010F5E1F4FCE010596B80142
:100410000E947605C701B801AE01475E5F4F0E949A
:100420006D000E94A104A096E6E00C94F813A0E2EF
:10043000B0E0EDE1F2E00C94D01369837A838B8312
:100440009C832D833E834F835887CE010196BE0146
:10045000675F7F4F0E947605CE010596BE016F5EF5
:100460007F4F0E9476059985923088F08989823085
:10047000C8F0943019F4823051F404C0843029F467
:10048000923081F480E690E0C6C0923049F420E0DA
:100490009A858A89981321E02A87CE010996BBC0E4
:1004A000823049F420E09A858A89981321E02A8BCA
:1004B000CE014196B0C02D843E844F8458886D880B
:1004C0007E888F88988CEE24FF248701AA24BB2481
:1004D000650140E050E060E070E0E0E0F0E0C10184
:1004E00081709070892BE9F0E60CF71C081D191D2E
:1004F0009A01AB012A0D3B1D4C1D5D1D80E090E073
:10050000A0E0B0E0E614F7040805190520F481E046
:1005100090E0A0E0B0E0BA01A901480F591F6A1F9E
:100520007B1FAA0CBB1CCC1CDD1C97FE08C081E005
:1005300090E0A0E0B0E0A82AB92ACA2ADB2A3196C6
:10054000E032F10549F0660C771C881C991C569422
:10055000479437942794C3CFFA85EA892B893C893D
:100560008B859C85280F391F2E5F3F4F17C0CA010E
:1005700081709070892B61F016950795F794E79438
:1005800080E090E0A0E0B0E8E82AF92A0A2B1B2BD3
:1005900076956795579547952F5F3F4F77FDE7CF46
:1005A0000CC0440F551F661F771F17FD4160EE0CEE
:1005B000FF1C001F111F21503040403090E05907B0
:1005C00090E0690790E4790760F32B8F3C8FDB01A3
:1005D000CA018F779070A070B07080349105A1052A
:1005E000B10561F447FD0AC0E114F10401051105EC
:1005F00029F0405C5F4F6F4F7F4F40781A8EFE1797
:1006000011F081E08A8F4D8F5E8F6F8F78A383E02A
:10061000898FCE0149960E94A104A096E2E10C9434
:10062000EC13A8E1B0E0E7E1F3E00C94D8136983A0
:100630007A838B839C832D833E834F835887B9E0D5
:10064000EB2EF12CEC0EFD1ECE010196B7010E949F
:1006500076058E010F5E1F4FCE010596B8010E94F0
:1006600076052985223008F47EC03989323010F4AD
:10067000B8017CC08A859A8989278A87243011F03D
:10068000223031F4231709F06EC060E670E06EC0CE
:10069000343039F41D861E861F86188A1C861B86F8
:1006A00004C0323021F484E08987B7015FC02B8514
:1006B0003C858B899C89281B390B3C872B87ED84D3
:1006C000FE840F851889AD88BE88CF88D88CEA143F
:1006D000FB040C051D0540F4EE0CFF1C001F111F50
:1006E000215030403C872B8720E030E040E050E054
:1006F00080E090E0A0E0B0E460E070E0EA14FB0489
:100700000C051D0540F0282B392B4A2B5B2BEA18D2
:10071000FB080C091D09B695A79597958795EE0CD2
:10072000FF1C001F111F6F5F7F4F6F31710531F785
:10073000DA01C9018F779070A070B0708034910594
:10074000A105B10561F427FD0AC0E114F10401051A
:10075000110529F0205C3F4F4F4F5F4F20782D87C8
:100760003E874F87588BBE01675F7F4FCB010E944A
:10077000A1046896EAE00C94F413A8E1B0E0E3EC7D
:10078000F3E00C94DC1369837A838B839C832D8341
:100790003E834F83588789E0E82EF12CEC0EFD1E36
:1007A000CE010196B7010E9476058E010F5E1F4FA4
:1007B000CE010596B8010E9476058985823040F009
:1007C0008989823028F0C701B8010E94EE0501C076
:1007D0008FEF6896E6E00C94F813A8E1B0E0E3EF41
:1007E000F3E00C94DC1369837A838B839C832D83E1
:1007F0003E834F83588789E0E82EF12CEC0EFD1ED6
:10080000CE010196B7010E9476058E010F5E1F4F43
:10081000CE010596B8010E9476058985823040F0A8
:100820008989823028F0C701B8010E94EE0501C015
:100830008FEF6896E6E00C94F813A8E1B0E0E3E2ED
:10084000F4E00C94DC1369837A838B839C832D837F
:100850003E834F83588789E0E82EF12CEC0EFD1E75
:10086000CE010196B7010E9476058E010F5E1F4FE3
:10087000CE010596B8010E9476058985823040F048
:100880008989823028F0C701B8010E94EE0501C0B5
:1008900081E06896E6E00C94F813ACE0B0E0E3E5A4
:1008A000F4E00C94E01369837A838B839C83CE01FC
:1008B0000196BE016B5F7F4F0E9476058D8182306D
:1008C00061F1823050F1843021F48E81882351F11E
:1008D0002EC02F81388537FD20C06E812F31310524
:1008E0001CF06623F9F023C08EE190E0821B930B8D
:1008F00029853A854B855C8504C056954795379583
:1009000027958A95D2F76623B1F05095409530959A
:1009100021953F4F4F4F5F4F0EC020E030E040E049
:1009200050E009C02FEF3FEF4FEF5FE704C020E03A
:1009300030E040E050E8B901CA012C96E2E00C94A6
:10094000FC13DF92EF92FF920F931F93FC01E48060
:10095000F58006811781D1808081823048F480E063
:1009600090E0A0E1B0E0E82AF92A0A2B1B2BA5C0F1
:10097000843009F49FC0823021F4EE24FF248701E3
:1009800005C0E114F1040105110519F4E0E0F0E0FF
:1009900096C0628173819FEF623879070CF05BC06B
:1009A00022E83FEF261B370B2A3131052CF020E0DF
:1009B00030E040E050E02AC0B801A701022E04C098
:1009C00076956795579547950A94D2F781E090E020
:1009D000A0E0B0E004C0880F991FAA1FBB1F2A9592
:1009E000D2F70197A109B1098E219F21A023B1233C
:1009F0000097A105B10521F081E090E0A0E0B0E012
:100A00009A01AB01282B392B4A2B5B2BDA01C90148
:100A10008F779070A070B07080349105A105B105FA
:100A200039F427FF09C0205C3F4F4F4F5F4F04C090
:100A3000215C3F4F4F4F5F4FE0E0F0E02030A0E0FF
:100A40003A07A0E04A07A0E45A0710F0E1E0F0E01E
:100A500079018A0127C06038710564F5FB01E1580E
:100A6000FF4FD801C7018F779070A070B0708034AD
:100A70009105A105B10539F4E7FE0DC080E490E0D1
:100A8000A0E0B0E004C08FE390E0A0E0B0E0E80EAA
:100A9000F91E0A1F1B1F17FF05C016950795F7942F
:100AA000E794319687E016950795F794E7948A9531
:100AB000D1F705C0EE24FF248701EFEFF0E06E2FA1
:100AC000679566276795902F9F77D794DD24D794F5
:100AD0008E2F8695492F462B582F5D29B701CA01C5
:100AE0001F910F91FF90EF90DF900895FC01DB01C3
:100AF000408151812281622F6F7770E0221F22276F
:100B0000221F9381892F880F822B282F30E0991F75
:100B10009927991F11969C93119721153105A9F5D5
:100B2000411551056105710511F482E037C082E875
:100B30009FEF13969C938E9312979A01AB0167E0F7
:100B4000220F331F441F551F6A95D1F783E08C9302
:100B50000DC0220F331F441F551F12968D919C917B
:100B60001397019713969C938E931297203080E0F1
:100B7000380780E0480780E4580758F314962D930F
:100B80003D934D935C93179708952F3F310579F46A
:100B9000411551056105710519F484E08C930895A0
:100BA00064FF03C081E08C9312C01C9210C02F57C9
:100BB000304013963C932E93129783E08C9387E0FA
:100BC000440F551F661F771F8A95D1F770641496DE
:100BD0004D935D936D937C93179708951F93DC015C
:100BE000FB019C91923008F447C08081823008F468
:100BF00043C0943051F411961C91843099F5818151
:100C0000682F70E0611B71093FC0843021F0923081
:100C100031F48230B9F18181882389F12DC0119698
:100C20001C9111978230F1F081811817D9F4129636
:100C30002D913C911397828193818217930794F0B1
:100C400028173907BCF014968D919D910D90BC9199
:100C5000A02D2481358146815781281739074A07FD
:100C60005B0718F4112341F00AC082179307A40709
:100C7000B50740F4112319F061E070E005C06FEF93
:100C80007FEF02C060E070E0CB011F9108950F93E9
:100C90001F93DF93CF93CDB7DEB700E210E0E1E220
:100CA000F0E0108220E030E040E050E460E070E0EE
:100CB00080E193E40E941103DC01CB01BC01CD0172
:100CC0000E944100DC01CB01F8018083CF91DF91CC
:100CD0001F910F910895DF93CF930F92CDB7DEB799
:100CE000E6E5F0E084EA8083E6E5F0E080818823B1
:100CF000DCF7E1E2F0E08081887F898389818830B8
:100D000009F0198289810F90CF91DF910895DF93C7
:100D1000CF9300D0CDB7DEB78A83E3E2F0E08A81DB
:100D20008083E6E5F0E084E88083E6E5F0E080811A
:100D30008823DCF7E1E2F0E08081887F8983898184
:100D4000883119F488E1898305C08981803211F4E2
:100D500080E2898389810F900F90CF91DF91089570
:100D6000DF93CF930F92CDB7DEB7E6E5F0E084EAEC
:100D70008083E6E5F0E080818823DCF7E1E2F0E0C3
:100D80008081887F89838981803109F019828981F6
:100D90000F90CF91DF910895DF93CF9300D0CDB71F
:100DA000DEB78A83E3E2F0E08A818083E6E5F0E063
:100DB00084E88083E6E5F0E080818823DCF7E1E2E7
:100DC000F0E08081887F89838981803419F480E410
:100DD000898305C08981883411F488E489838981F5
:100DE0000F900F90CF91DF910895DF93CF9300D0B4
:100DF000CDB7DEB78A83E3E2F0E08A818083E6E55F
:100E0000F0E084E88083E6E5F0E080818823DCF789
:100E1000E1E2F0E08081887F89838981883219F45A
:100E200088E2898305C08981803311F480E3898356
:100E300089810F900F90CF91DF910895DF93CF9329
:100E4000CDB7DEB7E6E5F0E084EC8083E6E5F0E0E0
:100E500080818823DCF7E3E2F0E08081CF91DF91AD
:100E60000895DF93CF93CDB7DEB7E6E5F0E084E8F1
:100E70008083E6E5F0E080818823DCF7E3E2F0E0C0
:100E80008081CF91DF910895DF93CF93CDB7DEB707
:100E9000E6E5F0E084E98083E6E5F0E08081882FF4
:100EA00090E0807190700097B9F7CF91DF9108952D
:100EB000DF93CF93CDB7DEB72A970FB6F894DEBF96
:100EC0000FBECDBF8B836C838B819AE0692F0E940C
:100ED0008713892F8A838B819AE0692F0E94871359
:100EE00089838C81282F30E03A87298789859A85E4
:100EF000009739F029853A852130310509F476C00B
:100F0000E4C08981282F30E038872F838F8198852E
:100F10008230910561F12F8138852330310534F419
:100F20008F8198858130910569F0CFC02F813885F8
:100F30002330310589F18F8198858430910509F43A
:100F400040C0C3C0AAE3B0E0EAE3F0E08081482FEC
:100F50008A81282F30E081E090E0022E02C0880FC5
:100F6000991F0A94E2F7809584238C93AEC0A7E37F
:100F7000B0E0E7E3F0E08081482F8A81282F30E05D
:100F800081E090E0022E02C0880F991F0A94E2F7D8
:100F9000809584238C9399C0A4E3B0E0E4E3F0E06F
:100FA0008081482F8A81282F30E081E090E0022E56
:100FB00002C0880F991F0A94E2F7809584238C93CE
:100FC00084C0A1E3B0E0E1E3F0E08081482F8A81B2
:100FD000282F30E081E090E0022E02C0880F991F98
:100FE0000A94E2F7809584238C936FC08981282F1F
:100FF00030E03E832D838D819E818230910551F1B9
:101000002D813E812330310534F48D819E818130E4
:10101000910561F05AC02D813E812330310571F177
:101020008D819E8184309105E9F14FC0AAE3B0E043
:10103000EAE3F0E08081482F8A81282F30E081E0C8
:1010400090E0022E02C0880F991F0A94E2F7842BC9
:101050008C933BC0A7E3B0E0E7E3F0E08081482F4A
:101060008A81282F30E081E090E0022E02C0880FB4
:10107000991F0A94E2F7842B8C9327C0A4E3B0E075
:10108000E4E3F0E08081482F8A81282F30E081E07E
:1010900090E0022E02C0880F991F0A94E2F7842B79
:1010A0008C9313C0A1E3B0E0E1E3F0E08081482F2E
:1010B0008A81282F30E081E090E0022E02C0880F64
:1010C000991F0A94E2F7842B8C932A960FB6F89412
:1010D000DEBF0FBECDBFCF91DF910895DF93CF93D9
:1010E000CDB7DEB72A970FB6F894DEBF0FBECDBFDF
:1010F0008B836C838B819AE0692F0E948713892FE1
:101100008A838B819AE0692F0E94871389838C815F
:10111000282F30E03A87298789859A85009739F00A
:1011200029853A852130310509F476C0E4C08981EA
:10113000282F30E038872F838F8198858230910562
:1011400061F12F8138852330310534F48F81988502
:101150008130910569F0CFC02F813885233031056A
:1011600089F18F8198858430910509F440C0C3C00E
:10117000ABE3B0E0EBE3F0E08081482F8A81282FD9
:1011800030E081E090E0022E02C0880F991F0A949F
:10119000E2F7809584238C93AEC0A8E3B0E0E8E347
:1011A000F0E08081482F8A81282F30E081E090E0B4
:1011B000022E02C0880F991F0A94E2F780958423BB
:1011C0008C9399C0A5E3B0E0E5E3F0E08081482F7F
:1011D0008A81282F30E081E090E0022E02C0880F43
:1011E000991F0A94E2F7809584238C9384C0A2E32C
:1011F000B0E0E2E3F0E08081482F8A81282F30E0E0
:1012000081E090E0022E02C0880F991F0A94E2F755
:10121000809584238C936FC08981282F30E03E8392
:101220002D838D819E818230910551F12D813E81EA
:101230002330310534F48D819E818130910561F038
:101240005AC02D813E812330310571F18D819E81FF
:1012500084309105E9F14FC0ABE3B0E0EBE3F0E09F
:101260008081482F8A81282F30E081E090E0022E93
:1012700002C0880F991F0A94E2F7842B8C933BC01D
:10128000A8E3B0E0E8E3F0E08081482F8A81282FCE
:1012900030E081E090E0022E02C0880F991F0A948E
:1012A000E2F7842B8C9327C0A5E3B0E0E5E3F0E000
:1012B0008081482F8A81282F30E081E090E0022E43
:1012C00002C0880F991F0A94E2F7842B8C9313C0F5
:1012D000A2E3B0E0E2E3F0E08081482F8A81282F8A
:1012E00030E081E090E0022E02C0880F991F0A943E
:1012F000E2F7842B8C932A960FB6F894DEBF0FBECC
:10130000CDBFCF91DF910895DF93CF9300D000D070
:1013100000D0CDB7DEB78C838C819AE0692F0E9414
:101320008713892F8B838C819AE0692F0E94871302
:101330008A8319828A81282F30E03E832D834D8154
:101340005E814230510541F18D819E81833091054E
:1013500034F42D813E812130310561F052C04D8140
:101360005E814330510551F18D819E81843091051C
:10137000B9F147C0E9E3F0E08081282F30E08B81AC
:10138000882F90E0A90102C0559547958A95E2F70C
:10139000CA018170898335C0E6E3F0E08081282F9F
:1013A00030E08B81882F90E0A90102C055954795C8
:1013B0008A95E2F7CA018170898323C0E3E3F0E0F4
:1013C0008081282F30E08B81882F90E0A90102C016
:1013D000559547958A95E2F7CA018170898311C0B6
:1013E000E0E3F0E08081282F30E08B81882F90E0CF
:1013F000A90102C0559547958A95E2F7CA01817007
:101400008983898126960FB6F894DEBF0FBECDBFC3
:10141000CF91DF910895DF93CF9300D000D00F924A
:10142000CDB7DEB78B838B819AE0692F0E9487133B
:10143000892F8A838B819AE0692F0E948713898381
:101440008981282F30E03D832C838C819D818230DF
:10145000910551F12C813D812330310534F48C818B
:101460009D818130910561F05AC02C813D812330EE
:10147000310571F18C819D8184309105E9F14FC076
:10148000ABE3B0E0EBE3F0E08081482F8A81282FC6
:1014900030E081E090E0022E02C0880F991F0A948C
:1014A000E2F784278C933BC0A8E3B0E0E8E3F0E0E8
:1014B0008081482F8A81282F30E081E090E0022E41
:1014C00002C0880F991F0A94E2F784278C9327C0E3
:1014D000A5E3B0E0E5E3F0E08081482F8A81282F82
:1014E00030E081E090E0022E02C0880F991F0A943C
:1014F000E2F784278C9313C0A2E3B0E0E2E3F0E0CC
:101500008081482F8A81282F30E081E090E0022EF0
:1015100002C0880F991F0A94E2F784278C930F90DA
:101520000F900F900F900F90CF91DF910895DF9360
:10153000CF93CDB7DEB72A970FB6F894DEBF0FBEB4
:10154000CDBF8B836C838B819AE0692F0E948713B8
:10155000892F8A838B819AE0692F0E948713898360
:101560008C81282F30E03A87298789859A850097D2
:1015700039F029853A852130310509F476C0E4C077
:101580008981282F30E038872F838F81988582309A
:10159000910561F12F8138852330310534F48F8135
:1015A00098858130910569F0CFC02F81388523302F
:1015B000310589F18F8198858430910509F440C007
:1015C000C3C0ABE3B0E0EBE3F0E08081482F8A8159
:1015D000282F30E081E090E0022E02C0880F991F92
:1015E0000A94E2F7809584238C93AEC0A8E3B0E020
:1015F000E8E3F0E08081482F8A81282F30E081E005
:1016000090E0022E02C0880F991F0A94E2F780959D
:1016100084238C9399C0A5E3B0E0E5E3F0E08081FA
:10162000482F8A81282F30E081E090E0022E02C00E
:10163000880F991F0A94E2F7809584238C9384C0C5
:10164000A2E3B0E0E2E3F0E08081482F8A81282F16
:1016500030E081E090E0022E02C0880F991F0A94CA
:10166000E2F7809584238C936FC08981282F30E026
:101670003E832D838D819E818230910551F12D8194
:101680003E812330310534F48D819E818130910576
:1016900061F05AC02D813E812330310571F18D8179
:1016A0009E8184309105E9F14FC0ABE3B0E0EBE3FC
:1016B000F0E08081482F8A81282F30E081E090E09F
:1016C000022E02C0880F991F0A94E2F7842B8C9394
:1016D0003BC0A8E3B0E0E8E3F0E08081482F8A81D6
:1016E000282F30E081E090E0022E02C0880F991F81
:1016F0000A94E2F7842B8C9327C0A5E3B0E0E5E3DE
:10170000F0E08081482F8A81282F30E081E090E04E
:10171000022E02C0880F991F0A94E2F7842B8C9343
:1017200013C0A2E3B0E0E2E3F0E08081482F8A81B9
:10173000282F30E081E090E0022E02C0880F991F30
:101740000A94E2F7842B8C932A960FB6F894DEBFA6
:101750000FBECDBFCF91DF910895DF93CF93CDB76B
:10176000DEB784E161E00E94580785E161E00E94F4
:10177000580786E161E00E94580788E161E00E9415
:1017800058078DE061E00E9458078CE061E00E94FC
:10179000580783E30E94170E82E30E94170E88E227
:1017A0000E94170E8CE00E94170E82E00E94170E16
:1017B00081E00E94170ECF91DF910895DF93CF93C0
:1017C000CDB7DEB7E9970FB6F894DEBF0FBECDBF39
:1017D00089AF8DE061E00E946E0889AD82958F70BF
:1017E000982F917084E1692F0E946E0889AD8295CF
:1017F00086958770982F917085E1692F0E946E08F9
:1018000089AD8295869586958370982F917086E133
:10181000692F0E946E0889AD982F991F9927991FEB
:1018200088E1692F0E946E088CE061E00E946E08DA
:1018300080E090E0A0E8BFE38DAB9EABAFABB8AF6C
:101840006DA97EA98FA998AD20E030E04AE755E464
:101850000E941702DC01CB0189AB9AABABABBCABEE
:1018600069A97AA98BA99CA920E030E040E85FE350
:101870000E941D0488232CF481E090E098AB8FA790
:101880003FC069A97AA98BA99CA920E03FEF4FE747
:1018900057E40E94BD0318164CF56DA97EA98FA9C7
:1018A00098AD20E030E040E251E40E941702DC01F4
:1018B000CB01BC01CD010E944100DC01CB0198AB02
:1018C0008FA70FC080E991E09EA78DA78DA59EA54B
:1018D0000197F1F79EA78DA78FA598A9019798ABBF
:1018E0008FA78FA598A9009769F714C069A97AA94D
:1018F0008BA99CA90E944100DC01CB0198AB8FA76A
:101900008FA598A99CA78BA78BA59CA50197F1F7FC
:101910009CA78BA78CE060E00E946E0880E090E0BE
:10192000A0E8BFE38FA398A7A9A7BAA76FA178A53E
:1019300089A59AA520E030E04AE755E40E94170205
:10194000DC01CB018BA39CA3ADA3BEA36BA17CA1A7
:101950008DA19EA120E030E040E85FE30E941D04DD
:1019600088232CF481E090E09AA389A33FC06BA167
:101970007CA18DA19EA120E03FEF4FE757E40E949C
:10198000BD0318164CF56FA178A589A59AA520E08E
:1019900030E040E251E40E941702DC01CB01BC01BF
:1019A000CD010E944100DC01CB019AA389A30FC0A5
:1019B00080E991E098A38F8F8F8D98A10197F1F71F
:1019C00098A38F8F89A19AA101979AA389A389A12E
:1019D0009AA1009769F714C06BA17CA18DA19EA16B
:1019E0000E944100DC01CB019AA389A389A19AA19D
:1019F0009E8F8D8F8D8D9E8D0197F1F79E8F8D8F90
:101A000089AD982F917084E1692F0E946E0889AD8D
:101A10008695982F917085E1692F0E946E0889AD97
:101A200086958695982F917086E1692F0E946E08A1
:101A300089AD869586958695982F917088E1692F56
:101A40000E946E088CE061E00E946E0880E090E0E9
:101A5000A0E8BFE3898F9A8FAB8FBC8F698D7A8D99
:101A60008B8D9C8D20E030E04AE755E40E94170200
:101A7000DC01CB018D8B9E8BAF8BB88F6D897E89FE
:101A80008F89988D20E030E040E85FE30E941D04DC
:101A900088232CF481E090E09C8B8B8B3FC06D8978
:101AA0007E898F89988D20E03FEF4FE757E40E94B1
:101AB000BD0318164CF5698D7A8D8B8D9C8D20E0B9
:101AC00030E040E251E40E941702DC01CB01BC018E
:101AD000CD010E944100DC01CB019C8B8B8B0FC0A0
:101AE00080E991E09A8B898B89899A890197F1F72E
:101AF0009A8B898B8B899C8901979C8B8B8B8B898B
:101B00009C89009769F714C06D897E898F89988DAB
:101B10000E944100DC01CB019C8B8B8B8B899C89C3
:101B2000988B8F878F8598890197F1F7988B8F878E
:101B30008CE060E00E946E0880E090E0A0EAB0E4F3
:101B40008B879C87AD87BE876B857C858D859E85C1
:101B500020E030E04AE755E40E941702DC01CB01A7
:101B60008F839887A987BA876F81788589859A85B9
:101B700020E030E040E85FE30E941D0488232CF45D
:101B800081E090E09E838D833FC06F817885898559
:101B90009A8520E03FEF4FE757E40E94BD031816F7
:101BA0004CF56B857C858D859E8520E030E040E29C
:101BB00051E40E941702DC01CB01BC01CD010E945F
:101BC0004100DC01CB019E838D830FC080E991E051
:101BD0009C838B838B819C810197F1F79C838B8302
:101BE0008D819E8101979E838D838D819E8100973B
:101BF00069F714C06F81788589859A850E944100B4
:101C0000DC01CB019E838D838D819E819A838983A4
:101C100089819A810197F1F79A838983E9960FB6B2
:101C2000F894DEBF0FBECDBFCF91DF910895DF9353
:101C3000CF93CDB7DEB7E9970FB6F894DEBF0FBEEE
:101C4000CDBF89AF8DE060E00E946E0889AD8295BE
:101C50008F70982F917084E1692F0E946E0889AD72
:101C6000829586958770982F917085E1692F0E94E3
:101C70006E0889AD8295869586958370982F9170B0
:101C800086E1692F0E946E0889AD982F991F9927C8
:101C9000991F88E1692F0E946E088CE061E00E9424
:101CA0006E0880E090E0A0E8BFE38DAB9EABAFABE9
:101CB000B8AF6DA97EA98FA998AD20E030E04AE7C2
:101CC00055E40E941702DC01CB0189AB9AABABABA8
:101CD000BCAB69A97AA98BA99CA920E030E040E8B7
:101CE0005FE30E941D0488232CF481E090E098AB10
:101CF0008FA73FC069A97AA98BA99CA920E03FEFD3
:101D00004FE757E40E94BD0318164CF56DA97EA954
:101D10008FA998AD20E030E040E251E40E94170224
:101D2000DC01CB01BC01CD010E944100DC01CB01F3
:101D300098AB8FA70FC080E991E09EA78DA78DA5D6
:101D40009EA50197F1F79EA78DA78FA598A901974A
:101D500098AB8FA78FA598A9009769F714C069A9B8
:101D60007AA98BA99CA90E944100DC01CB0198AB08
:101D70008FA78FA598A99CA78BA78BA59CA501973A
:101D8000F1F79CA78BA78CE060E00E946E0880E0D2
:101D900090E0A0E8BFE38FA398A7A9A7BAA76FA177
:101DA00078A589A59AA520E030E04AE755E40E948D
:101DB0001702DC01CB018BA39CA3ADA3BEA36BA137
:101DC0007CA18DA19EA120E030E040E85FE30E946D
:101DD0001D0488232CF481E090E09AA389A33FC0DE
:101DE0006BA17CA18DA19EA120E03FEF4FE757E4BE
:101DF0000E94BD0318164CF56FA178A589A59AA578
:101E000020E030E040E251E40E941702DC01CB0107
:101E1000BC01CD010E944100DC01CB019AA389A342
:101E20000FC080E991E098A38F8F8F8D98A10197C3
:101E3000F1F798A38F8F89A19AA101979AA389A3FB
:101E400089A19AA1009769F714C06BA17CA18DA10B
:101E50009EA10E944100DC01CB019AA389A389A124
:101E60009AA19E8F8D8F8D8D9E8D0197F1F79E8FFC
:101E70008D8F89AD982F917084E1692F0E946E0833
:101E800089AD8695982F917085E1692F0E946E0823
:101E900089AD86958695982F917086E1692F0E946D
:101EA0006E0889AD869586958695982F917088E104
:101EB000692F0E946E088CE061E00E946E0880E04D
:101EC00090E0A0E8BFE3898F9A8FAB8FBC8F698DBC
:101ED0007A8D8B8D9C8D20E030E04AE755E40E949E
:101EE0001702DC01CB018D8B9E8BAF8BB88F6D8978
:101EF0007E898F89988D20E030E040E85FE30E9482
:101F00001D0488232CF481E090E09C8B8B8B3FC0D8
:101F10006D897E898F89988D20E03FEF4FE757E4E8
:101F20000E94BD0318164CF5698D7A8D8B8D9C8DA2
:101F300020E030E040E251E40E941702DC01CB01D6
:101F4000BC01CD010E944100DC01CB019C8B8B8B3D
:101F50000FC080E991E09A8B898B89899A890197D2
:101F6000F1F79A8B898B8B899C8901979C8B8B8B42
:101F70008B899C89009769F714C06D897E898F8948
:101F8000988D0E944100DC01CB019C8B8B8B8B894F
:101F90009C89988B8F878F8598890197F1F7988B0B
:101FA0008F878CE060E00E946E0880E090E0A0EAFD
:101FB000B0E48B879C87AD87BE876B857C858D85DC
:101FC0009E8520E030E04AE755E40E941702DC01DC
:101FD000CB018F839887A987BA876F817885898598
:101FE0009A8520E030E040E85FE30E941D048823EA
:101FF0002CF481E090E09E838D833FC06F817885D3
:1020000089859A8520E03FEF4FE757E40E94BD03A2
:1020100018164CF56B857C858D859E8520E030E01B
:1020200040E251E40E941702DC01CB01BC01CD016A
:102030000E944100DC01CB019E838D830FC080E9AB
:1020400091E09C838B838B819C810197F1F79C832A
:102050008B838D819E8101979E838D838D819E814F
:10206000009769F714C06F81788589859A850E94E9
:102070004100DC01CB019E838D838D819E819A83FB
:10208000898389819A810197F1F79A838983E996F7
:102090000FB6F894DEBF0FBECDBFCF91DF9108958C
:1020A000DF93CF9300D00F92CDB7DEB79B838A83A7
:1020B00019820EC08981282F30E08A819B81FC0122
:1020C000E20FF31F80810E94DE0B89818F5F89837D
:1020D0008981282F30E08A819B81FC01E20FF31F68
:1020E0008081882339F70F900F900F90CF91DF9167
:1020F0000895DF93CF93CDB7DEB781E00E94170E2E
:10210000CF91DF9108950F931F93DF93CF93CDB7B6
:10211000DEB72F970FB6F894DEBF0FBECDBF6C872A
:102120007D878E879F8719828AE0FE013296DF01C4
:10213000982F1D929A95E9F78C859D85AE85BF8570
:10214000BB2394F48C859D85AE85BF85B095A09505
:10215000909581959F4FAF4FBF4F8C879D87AE87DE
:10216000BF878DE20E94DE0B8981082F112707FDB2
:1021700010958C859D85AE85BF852AE030E040E0D6
:1021800050E0BC01CD010E949313DC01CB01282F4C
:10219000CE010296FC01E00FF11F20838C859D8506
:1021A000AE85BF852AE030E040E050E0BC01CD01C3
:1021B0000E949313DA01C9018C879D87AE87BF8780
:1021C00089818F5F89838C859D85AE85BF850097CA
:1021D000A105B10549F611C08981815089838981A2
:1021E000282F332727FD3095CE010296FC01E20F00
:1021F000F31F8081805D0E94DE0B8981181664F3D5
:102200002F960FB6F894DEBF0FBECDBFCF91DF91F2
:102210001F910F910895DF93CF9300D000D000D08D
:10222000CDB7DEB78D836E8380E8898380EC8A83A7
:1022300084E98B8384ED8C838D81282F30E0CE015F
:102240000196FC01E20FF31F90818E81890F0E949D
:10225000170E26960FB6F894DEBF0FBECDBFCF91F6
:10226000DF910895DF93CF93CDB7DEB70E94470685
:10227000CF91DF910895DF93CF9300D0CDB7DEB734
:102280009A8389830E946B0680ED0E94870680E016
:102290000E94F506E981FA8180819AE0692F0E9407
:1022A0008713882F90E082959295907F9827807F62
:1022B0009827282FE981FA8180819AE0692F0E946E
:1022C0008713892F822B8F770E94F506E981FA8187
:1022D00081819AE0692F0E948713882F90E0829570
:1022E0009295907F9827807F9827282FE981FA81FF
:1022F00081819AE0692F0E948713892F822B0E9487
:10230000F506E981FA8182819AE0692F0E9487139C
:10231000882F90E082959295907F9827807F9827CC
:10232000282FE981FA8182819AE0692F0E94871320
:10233000892F822B8F7B0E94F5060E9444070F9005
:102340000F90CF91DF910895DF93CF9300D0CDB759
:10235000DEB79A8389830E946B0680ED0E94870610
:1023600083E00E94F506E981FA8183810E94F506E7
:10237000E981FA8184819AE0692F0E948713882F6E
:1023800090E082959295907F9827807F9827282FBC
:10239000E981FA8184819AE0692F0E948713892F4D
:1023A000822B0E94F506E981FA8185819AE0692FE6
:1023B0000E948713882F90E082959295907F9827AE
:1023C000807F9827282FE981FA8185819AE0692FFB
:1023D0000E948713892F822B0E94F506E981FA81DA
:1023E00086819AE0692F0E948713882F90E082955A
:1023F0009295907F9827807F9827282FE981FA81EE
:1024000086819AE0692F0E948713892F822B0E9470
:10241000F5060E9444070F900F90CF91DF91089529
:10242000DF93CF9300D000D00F92CDB7DEB79D835E
:102430008C831B821A8219820E946B0680ED0E9497
:10244000870680E00E94F5060E94B00681ED0E949A
:10245000CC060E941E078B838B81482F4F708B8187
:1024600082958F70882F90E090709C01220F331F0F
:10247000C901880F991F880F991F820F931F840F1E
:10248000EC81FD8180830E941E078A838A81482F08
:102490004F708A8182958F70882F90E090709C0198
:1024A000220F331FC901880F991F880F991F820FB0
:1024B000931F840FEC81FD8181830E943107898302
:1024C0008981482F4F70898182958F70882F90E085
:1024D00090709C01220F331FC901880F991F880F2C
:1024E000991F820F931F840FEC81FD8182830E94CC
:1024F00044070F900F900F900F900F90CF91DF91A6
:102500000895DF93CF9300D000D00F92CDB7DEB700
:102510009D838C831B821A8219820E946B0680ED38
:102520000E94870683E00E94F5060E94B00681EDB6
:102530000E94CC060E941E07EC81FD8183830E94CD
:102540001E078B838B81482F4F708B8182958F70F4
:10255000882F90E09C01220F331FC901880F991F1B
:10256000880F991F820F931F840FEC81FD81848354
:102570000E941E078A838A81482F4F708A81829524
:102580008F70882F90E09C01220F331FC901880FA4
:10259000991F880F991F820F931F840FEC81FD8173
:1025A00085830E94310789838981482F4F708981F3
:1025B00082958F70882F90E09C01220F331FC901F4
:1025C000880F991F880F991F820F931F840FEC812A
:1025D000FD8186830E9444070F900F900F900F900B
:1025E0000F90CF91DF910895DF93CF93CDB7DEB7F2
:1025F00027970FB6F894DEBF0FBECDBF0E943211F1
:102600000E94AD0B0E947910CE0101960E9410121B
:10261000CE0101960E948112CE0101960E941113F3
:10262000FFCFDF93CF9300D0CDB7DEB79A838983F6
:10263000E981FA818281882F90E0A0E0B0E0BC01BE
:10264000CD010E9483108AE30E94DE0BE981FA81AA
:102650008181882F90E0A0E0B0E0BC01CD010E9414
:1026600083108AE30E94DE0BE981FA818081882F42
:1026700090E0A0E0B0E0BC01CD010E94831081E0B9
:1026800060E00E940B1128E630E0E981FA81838145
:10269000882F90E0880F991F880F991F820F931F32
:1026A0000E94501080E20E94DE0BE981FA81848151
:1026B000882F90E0A0E0B0E0BC01CD010E94831023
:1026C0008FE20E94DE0BE981FA818581882F90E0FC
:1026D000A0E0B0E0BC01CD010E9483108FE20E9417
:1026E000DE0B64E170E080E090E00E948310E981FD
:1026F000FA818681882F90E0A0E0B0E0BC01CD0196
:102700000E9483100F900F90CF91DF910895991B35
:1027100079E004C0991F961708F0961B881F7A95D8
:10272000C9F78095089597FB092E05260ED057FD11
:1027300004D014D00AD0001C38F450954095309540
:1027400021953F4F4F4F5F4F0895F6F79095809535
:10275000709561957F4F8F4F9F4F0895A1E21A2E7C
:10276000AA1BBB1BFD010DC0AA1FBB1FEE1FFF1F35
:10277000A217B307E407F50720F0A21BB30BE40B85
:10278000F50B661F771F881F991F1A9469F76095CC
:102790007095809590959B01AC01BD01CF01089586
:1027A0002F923F924F925F926F927F928F929F9261
:1027B000AF92BF92CF92DF92EF92FF920F931F934F
:1027C000CF93DF93CDB7DEB7CA1BDB0B0FB6F89400
:1027D000DEBF0FBECDBF09942A88398848885F8440
:1027E0006E847D848C849B84AA84B984C884DF80B1
:1027F000EE80FD800C811B81AA81B981CE0FD11D95
:102800000FB6F894DEBF0FBECDBFED010895F8946A
:02281000FFCFF8
:1028120000000000000000005341540053554E00D8
:102822004D4F4E005455450057454E0054485500F3
:0428320046524900C1
:00000001FF
