:100000000C942A000C943F000C943F000C943F0089
:100010000C943F000C943F000C943F000C943F0064
:100020000C943F000C943F000C943F000C943F0054
:100030000C943F000C943F000C943F000C943F0044
:100040000C943F000C943F000C943F000C943F0034
:100050000C943F0011241FBECFE5D4E0DEBFCDBF1E
:1000600010E0A0E6B0E0E0E2F7E202C005900D92F9
:10007000A438B107D9F70E949B050C948E130C94F9
:100080000000EF92FF920F931F937B018C0120E001
:1000900030E040E05FE40E94410388238CF0C80117
:1000A000B70120E030E040E05FE40E94B9010E9427
:1000B000A1039B01AC01205030404040504806C095
:1000C000C801B7010E94A1039B01AC01B901CA019B
:1000D0001F910F91FF90EF900895A0E0B0E0E3E74B
:1000E000F0E00C945713DC012B01FA019C91923043
:1000F00008F439C1EB018881823008F433C19430AF
:1001000069F4843009F02FC111969C91119789816F
:10011000981709F428C1A0E6B0E025C1843009F49D
:1001200021C18230A9F4923009F01DC19A01AD01BC
:1001300088E0EA010990AE01E90109929E0181502F
:10014000C1F7E201898111969C918923818308C1BD
:10015000923009F407C112962D903C901397EB0151
:100160008A819B811496AD90BD90CD90DC901797BD
:10017000EC80FD800E811F819101281B390BB90194
:1001800037FF04C066277727621B730B6032710547
:100190000CF061C0121613066CF537014801062EEB
:1001A00004C096948794779467940A94D2F721E0D8
:1001B00030E040E050E004C0220F331F441F551FC1
:1001C0006A95D2F721503040404050402E213F21C7
:1001D00040235123211531054105510521F021E02E
:1001E00030E040E050E079018A01E628F72808294C
:1001F00019293CC0232BD1F1260E371E35014601AB
:10020000062E04C096948794779467940A94D2F744
:1002100021E030E040E050E004C0220F331F441FD3
:10022000551F6A95D2F721503040404050402A2156
:100230003B214C215D21211531054105510521F05E
:1002400021E030E040E050E059016A01A628B728DB
:10025000C828D9280BC0821593052CF01C01AA24AC
:10026000BB24650103C0EE24FF24870111969C91F5
:10027000D20111968C91981709F445C0992339F051
:10028000A80197012A193B094C095D0906C0A6017E
:1002900095012E193F09400B510B57FD08C01182E3
:1002A0003382228224833583468357831DC081E0B5
:1002B00081833382228288279927DC01821B930B5A
:1002C000A40BB50B84839583A683B7830DC0220F3F
:1002D000331F441F551F24833583468357838281F0
:1002E000938101979383828324813581468157814D
:1002F000DA01C9010197A109B1098F5F9F4FAF4F83
:10030000BF4328F30BC0918333822282EA0CFB1C8B
:100310000C1D1D1DE482F5820683178383E0808314
:10032000248135814681578157FF1AC0C901AA2708
:1003300097FDA095BA2F81709070A070B0705695FF
:10034000479537952795822B932BA42BB52B848328
:100350009583A683B7838281938101969383828359
:10036000DF0101C0D201CD01CDB7DEB7E2E10C94CF
:100370007313A0E2B0E0EFEBF1E00C946313698338
:100380007A838B839C832D833E834F835887E9E058
:10039000EE2EF12CEC0EFD1ECE010196B7010E944F
:1003A000CA048E010F5E1F4FCE010596B8010E9450
:1003B000CA048A8991E089278A8BC701B801AE01F6
:1003C000475E5F4F0E946D000E94F503A096E6E035
:1003D0000C947F13A0E2B0E0E0EFF1E00C94631323
:1003E00069837A838B839C832D833E834F835887D5
:1003F000F9E0EF2EF12CEC0EFD1ECE010196B701B7
:100400000E94CA048E010F5E1F4FCE010596B801EF
:100410000E94CA04C701B801AE01475E5F4F0E9447
:100420006D000E94F503A096E6E00C947F13A0E215
:10043000B0E0EDE1F2E00C94571369837A838B838B
:100440009C832D833E834F835887CE010196BE0146
:10045000675F7F4F0E94CA04CE010596BE016F5EA2
:100460007F4F0E94CA049985923088F08989823032
:10047000C8F0943019F4823051F404C0843029F467
:10048000923081F480E690E0C6C0923049F420E0DA
:100490009A858A89981321E02A87CE010996BBC0E4
:1004A000823049F420E09A858A89981321E02A8BCA
:1004B000CE014196B0C02D843E844F8458886D880B
:1004C0007E888F88988CEE24FF248701AA24BB2481
:1004D000650140E050E060E070E0E0E0F0E0C10184
:1004E00081709070892BE9F0E60CF71C081D191D2E
:1004F0009A01AB012A0D3B1D4C1D5D1D80E090E073
:10050000A0E0B0E0E614F7040805190520F481E046
:1005100090E0A0E0B0E0BA01A901480F591F6A1F9E
:100520007B1FAA0CBB1CCC1CDD1C97FE08C081E005
:1005300090E0A0E0B0E0A82AB92ACA2ADB2A3196C6
:10054000E032F10549F0660C771C881C991C569422
:10055000479437942794C3CFFA85EA892B893C893D
:100560008B859C85280F391F2E5F3F4F17C0CA010E
:1005700081709070892B61F016950795F794E79438
:1005800080E090E0A0E0B0E8E82AF92A0A2B1B2BD3
:1005900076956795579547952F5F3F4F77FDE7CF46
:1005A0000CC0440F551F661F771F17FD4160EE0CEE
:1005B000FF1C001F111F21503040403090E05907B0
:1005C00090E0690790E4790760F32B8F3C8FDB01A3
:1005D000CA018F779070A070B07080349105A1052A
:1005E000B10561F447FD0AC0E114F10401051105EC
:1005F00029F0405C5F4F6F4F7F4F40781A8EFE1797
:1006000011F081E08A8F4D8F5E8F6F8F78A383E02A
:10061000898FCE0149960E94F503A096E2E10C94E1
:100620007313A8E1B0E0E7E1F3E00C94631369838E
:100630007A838B839C832D833E834F83588789E005
:10064000E82EF12CEC0EFD1ECE010196B7010E94A2
:10065000CA048E010F5E1F4FCE010596B8010E949D
:10066000CA048985823040F08989823028F0C70128
:10067000B8010E94420501C08FEF6896E6E00C9435
:100680007F13A8E1B0E0E7E4F3E00C94631369831F
:100690007A838B839C832D833E834F83588789E0A5
:1006A000E82EF12CEC0EFD1ECE010196B7010E9442
:1006B000CA048E010F5E1F4FCE010596B8010E943D
:1006C000CA048985823040F08989823028F0C701C8
:1006D000B8010E94420501C08FEF6896E6E00C94D5
:1006E0007F13A8E1B0E0E7E7F3E00C9463136983BC
:1006F0007A838B839C832D833E834F83588789E045
:10070000E82EF12CEC0EFD1ECE010196B7010E94E1
:10071000CA048E010F5E1F4FCE010596B8010E94DC
:10072000CA048985823040F08989823028F0C70167
:10073000B8010E94420501C081E06896E6E00C9491
:100740007F13ACE0B0E0E7EAF3E00C946713698351
:100750007A838B839C83CE010196BE016B5F7F4FB2
:100760000E94CA048D81823061F1823050F1843060
:1007700021F48E81882351F12EC02F81388537FDD9
:1007800020C06E812F3131051CF06623F9F023C0A3
:100790008EE190E0821B930B29853A854B855C8521
:1007A00004C056954795379527958A95D2F76623C5
:1007B000B1F050954095309521953F4F4F4F5F4F89
:1007C0000EC020E030E040E050E009C02FEF3FEFE6
:1007D0004FEF5FE704C020E030E040E050E8B901AF
:1007E000CA012C96E2E00C948313DF92EF92FF9201
:1007F0000F931F93FC01E480F58006811781D1805F
:100800008081823048F480E090E0A0E1B0E0E82A06
:10081000F92A0A2B1B2BA5C0843009F49FC0823013
:1008200021F4EE24FF24870105C0E114F104010541
:10083000110519F4E0E0F0E096C0628173819FEF4A
:10084000623879070CF05BC022E83FEF261B370BBC
:100850002A3131052CF020E030E040E050E02AC0A1
:10086000B801A701022E04C0769567955795479564
:100870000A94D2F781E090E0A0E0B0E004C0880FD5
:10088000991FAA1FBB1F2A95D2F70197A109B10989
:100890008E219F21A023B1230097A105B10521F04E
:1008A00081E090E0A0E0B0E09A01AB01282B392B69
:1008B0004A2B5B2BDA01C9018F779070A070B07062
:1008C00080349105A105B10539F427FF09C0205CEA
:1008D0003F4F4F4F5F4F04C0215C3F4F4F4F5F4F23
:1008E000E0E0F0E02030A0E03A07A0E04A07A0E412
:1008F0005A0710F0E1E0F0E079018A0127C0603882
:10090000710564F5FB01E158FF4FD801C7018F77EE
:100910009070A070B07080349105A105B10539F4D4
:10092000E7FE0DC080E490E0A0E0B0E004C08FE3FB
:1009300090E0A0E0B0E0E80EF91E0A1F1B1F17FFB1
:1009400005C016950795F794E794319687E01695BC
:100950000795F794E7948A95D1F705C0EE24FF2414
:100960008701EFEFF0E06E2F679566276795902F70
:100970009F77D794DD24D7948E2F8695492F462BC9
:10098000582F5D29B701CA011F910F91FF90EF9079
:10099000DF900895FC01DB01408151812281622FAB
:1009A0006F7770E0221F2227221F9381892F880FE3
:1009B000822B282F30E0991F9927991F11969C931D
:1009C000119721153105A9F54115510561057105ED
:1009D00011F482E037C082E89FEF13969C938E93C8
:1009E00012979A01AB0167E0220F331F441F551F76
:1009F0006A95D1F783E08C930DC0220F331F441FFB
:100A0000551F12968D919C911397019713969C9365
:100A10008E931297203080E0380780E0480780E40A
:100A2000580758F314962D933D934D935C93179765
:100A300008952F3F310579F4411551056105710580
:100A400019F484E08C93089564FF03C081E08C93D3
:100A500012C01C9210C02F57304013963C932E9317
:100A6000129783E08C9387E0440F551F661F771F12
:100A70008A95D1F7706414964D935D936D937C9332
:100A8000179708951F93DC01FB019C91923008F4A5
:100A900047C08081823008F443C0943051F41196ED
:100AA0001C91843099F58181682F70E0611B710978
:100AB0003FC0843021F0923031F48230B9F181812D
:100AC000882389F12DC011961C9111978230F1F085
:100AD00081811817D9F412962D913C911397828138
:100AE00093818217930794F028173907BCF0149666
:100AF0008D919D910D90BC91A02D248135814681D1
:100B00005781281739074A075B0718F4112341F06A
:100B10000AC082179307A407B50740F4112319F000
:100B200061E070E005C06FEF7FEF02C060E070E051
:100B3000CB011F910895DF93CF93CDB7DEB72B97ED
:100B40000FB6F894DEBF0FBECDBF0E94C70B0E9448
:100B5000890D0E945512CE0105960E94A50CCE016A
:100B600005960E94160DCE0105960E94D4051982A5
:100B70001A821B821C820BC089819A81AB81BC8145
:100B80000196A11DB11D89839A83AB83BC838981A2
:100B90009A81AB81BC81803E23E9920724E0A207C1
:100BA00020E0B2074CF3D5CFDF93CF9300D0CDB781
:100BB000DEB79A838983E981FA818281882F90E068
:100BC000A0E0B0E0BC01CD010E945F128AE30E9468
:100BD000BA0DE981FA818181882F90E0A0E0B0E030
:100BE000BC01CD010E945F128AE30E94BA0DE98127
:100BF000FA818081882F90E0A0E0B0E0BC01CD01B7
:100C00000E945F1281E060E00E94E71228E630E077
:100C1000E981FA818381882F90E0880F991F880FDE
:100C2000991F820F931F0E942C1280E20E94BA0D1E
:100C3000E981FA818481882F90E0A0E0B0E0BC01D6
:100C4000CD010E945F128FE20E94BA0DE981FA8104
:100C50008581882F90E0A0E0B0E0BC01CD010E942A
:100C60005F128FE20E94BA0D64E170E080E090E0D4
:100C70000E945F12E981FA818681882F90E0A0E0CE
:100C8000B0E0BC01CD010E945F120F900F90CF9198
:100C9000DF9108950F931F93DF93CF93CDB7DEB706
:100CA000A1E2B0E0E1E2F0E080818E7F8C93A1E2EE
:100CB000B0E0E1E2F0E080818D7F8C9300E210E013
:100CC000E1E2F0E08081882F90E09C01220F331F49
:100CD00082E090E002C0880F991F2A95E2F79C01FC
:100CE000442737FD4095542F80E490E0A0E0B0E029
:100CF000BC01CD010E941A13DA01C901F8018083F9
:100D0000CF91DF911F910F910895DF93CF930F92B1
:100D1000CDB7DEB7E6E5F0E084EA8083E6E5F0E013
:100D200080818823DCF7E1E2F0E08081887F89839D
:100D30008981883009F0198289810F90CF91DF91E4
:100D40000895DF93CF9300D0CDB7DEB78A83E3E277
:100D5000F0E08A818083E6E5F0E084E88083E6E5E0
:100D6000F0E080818823DCF7E1E2F0E08081887F99
:100D700089838981883119F488E1898305C0898153
:100D8000803211F480E2898389810F900F90CF9196
:100D9000DF910895DF93CF930F92CDB7DEB7E6E5ED
:100DA000F0E084EA8083E6E5F0E080818823DCF7E8
:100DB000E1E2F0E08081887F89838981803109F0D8
:100DC000198289810F90CF91DF910895DF93CF939E
:100DD00000D0CDB7DEB78A83E3E2F0E08A8180837A
:100DE000E6E5F0E084E88083E6E5F0E080818823B2
:100DF000DCF7E1E2F0E08081887F898389818034BB
:100E000019F480E4898305C08981883411F488E469
:100E1000898389810F900F90CF91DF910895DF939F
:100E2000CF9300D0CDB7DEB78A83E3E2F0E08A81CA
:100E30008083E6E5F0E084E88083E6E5F0E0808109
:100E40008823DCF7E1E2F0E08081887F8983898173
:100E5000883219F488E2898305C08981803311F4CE
:100E600080E3898389810F900F90CF91DF9108955E
:100E7000DF93CF93CDB7DEB7E6E5F0E084EC808377
:100E8000E6E5F0E080818823DCF7E3E2F0E08081B2
:100E9000CF91DF910895DF93CF93CDB7DEB7E6E52D
:100EA000F0E084E88083E6E5F0E080818823DCF7E9
:100EB000E3E2F0E08081CF91DF910895DF93CF935B
:100EC000CDB7DEB7E6E5F0E084E98083E6E5F0E063
:100ED0008081882F90E0807190700097B9F7CF9152
:100EE000DF910895DF93CF93CDB7DEB72A970FB682
:100EF000F894DEBF0FBECDBF8B836C838B819AE0ED
:100F0000692F0E940E13892F8A838B819AE0692FA3
:100F10000E940E1389838C81282F30E03A8729871D
:100F200089859A85009739F029853A8521303105E0
:100F300009F476C0E4C08981282F30E038872F83F8
:100F40008F8198858230910561F12F81388523301A
:100F5000310534F48F8198858130910569F0CFC0D7
:100F60002F8138852330310589F18F819885843030
:100F7000910509F440C0C3C0AAE3B0E0EAE3F0E0A1
:100F80008081482F8A81282F30E081E090E0022E76
:100F900002C0880F991F0A94E2F7809584238C93EE
:100FA000AEC0A7E3B0E0E7E3F0E08081482F8A819C
:100FB000282F30E081E090E0022E02C0880F991FB8
:100FC0000A94E2F7809584238C9399C0A4E3B0E05F
:100FD000E4E3F0E08081482F8A81282F30E081E02F
:100FE00090E0022E02C0880F991F0A94E2F78095C4
:100FF00084238C9384C0A1E3B0E0E1E3F0E080813E
:10100000482F8A81282F30E081E090E0022E02C034
:10101000880F991F0A94E2F7809584238C936FC000
:101020008981282F30E03E832D838D819E818230FF
:10103000910551F12D813E812330310534F48D81AC
:101040009E818130910561F05AC02D813E8123300F
:10105000310571F18D819E8184309105E9F14FC098
:10106000AAE3B0E0EAE3F0E08081482F8A81282FEC
:1010700030E081E090E0022E02C0880F991F0A94B0
:10108000E2F7842B8C933BC0A7E3B0E0E7E3F0E00A
:101090008081482F8A81282F30E081E090E0022E65
:1010A00002C0880F991F0A94E2F7842B8C9327C003
:1010B000A4E3B0E0E4E3F0E08081482F8A81282FA8
:1010C00030E081E090E0022E02C0880F991F0A9460
:1010D000E2F7842B8C9313C0A1E3B0E0E1E3F0E0EE
:1010E0008081482F8A81282F30E081E090E0022E15
:1010F00002C0880F991F0A94E2F7842B8C932A96DA
:101100000FB6F894DEBF0FBECDBFCF91DF9108952B
:10111000DF93CF93CDB7DEB72A970FB6F894DEBF33
:101120000FBECDBF8B836C838B819AE0692F0E94A9
:101130000E13892F8A838B819AE0692F0E940E13E8
:1011400089838C81282F30E03A87298789859A8581
:10115000009739F029853A852130310509F476C0A8
:10116000E4C08981282F30E038872F838F819885CC
:101170008230910561F12F8138852330310534F4B7
:101180008F8198858130910569F0CFC02F81388596
:101190002330310589F18F8198858430910509F4D8
:1011A00040C0C3C0ABE3B0E0EBE3F0E08081482F88
:1011B0008A81282F30E081E090E0022E02C0880F63
:1011C000991F0A94E2F7809584238C93AEC0A8E31C
:1011D000B0E0E8E3F0E08081482F8A81282F30E0FA
:1011E00081E090E0022E02C0880F991F0A94E2F776
:1011F000809584238C9399C0A5E3B0E0E5E3F0E00B
:101200008081482F8A81282F30E081E090E0022EF3
:1012100002C0880F991F0A94E2F7809584238C936B
:1012200084C0A2E3B0E0E2E3F0E08081482F8A814D
:10123000282F30E081E090E0022E02C0880F991F35
:101240000A94E2F7809584238C936FC08981282FBC
:1012500030E03E832D838D819E818230910551F156
:101260002D813E812330310534F48D819E81813082
:10127000910561F05AC02D813E812330310571F115
:101280008D819E8184309105E9F14FC0ABE3B0E0E0
:10129000EBE3F0E08081482F8A81282F30E081E065
:1012A00090E0022E02C0880F991F0A94E2F7842B67
:1012B0008C933BC0A8E3B0E0E8E3F0E08081482FE6
:1012C0008A81282F30E081E090E0022E02C0880F52
:1012D000991F0A94E2F7842B8C9327C0A5E3B0E012
:1012E000E5E3F0E08081482F8A81282F30E081E01B
:1012F00090E0022E02C0880F991F0A94E2F7842B17
:101300008C9313C0A2E3B0E0E2E3F0E08081482FC9
:101310008A81282F30E081E090E0022E02C0880F01
:10132000991F0A94E2F7842B8C932A960FB6F894AF
:10133000DEBF0FBECDBFCF91DF910895DF93CF9376
:1013400000D000D000D0CDB7DEB78C838C819AE07E
:10135000692F0E940E13892F8B838C819AE0692F4D
:101360000E940E138A8319828A81282F30E03E83DF
:101370002D834D815E814230510541F18D819E81E9
:101380008330910534F42D813E812130310561F0A7
:1013900052C04D815E814330510551F18D819E8156
:1013A00084309105B9F147C0E9E3F0E08081282F4E
:1013B00030E08B81882F90E0A90102C055954795B8
:1013C0008A95E2F7CA018170898335C0E6E3F0E0CF
:1013D0008081282F30E08B81882F90E0A90102C006
:1013E000559547958A95E2F7CA018170898323C094
:1013F000E3E3F0E08081282F30E08B81882F90E0BC
:10140000A90102C0559547958A95E2F7CA018170F6
:10141000898311C0E0E3F0E08081282F30E08B81E8
:10142000882F90E0A90102C0559547958A95E2F76B
:10143000CA0181708983898126960FB6F894DEBF30
:101440000FBECDBFCF91DF910895DF93CF9300D032
:1014500000D00F92CDB7DEB78B838B819AE0692FD6
:101460000E940E13892F8A838B819AE0692F0E9434
:101470000E1389838981282F30E03D832C838C8152
:101480009D818230910551F12C813D8123303105C0
:1014900034F48C819D818130910561F05AC02C819A
:1014A0003D812330310571F18C819D81843091051E
:1014B000E9F14FC0ABE3B0E0EBE3F0E08081482F0F
:1014C0008A81282F30E081E090E0022E02C0880F50
:1014D000991F0A94E2F784278C933BC0A8E3B0E0FD
:1014E000E8E3F0E08081482F8A81282F30E081E016
:1014F00090E0022E02C0880F991F0A94E2F7842719
:101500008C9327C0A5E3B0E0E5E3F0E08081482FAD
:101510008A81282F30E081E090E0022E02C0880FFF
:10152000991F0A94E2F784278C9313C0A2E3B0E0DA
:10153000E2E3F0E08081482F8A81282F30E081E0CB
:1015400090E0022E02C0880F991F0A94E2F78427C8
:101550008C930F900F900F900F900F90CF91DF9181
:101560000895DF93CF93CDB7DEB72A970FB6F894DF
:10157000DEBF0FBECDBF8B836C838B819AE0692F5A
:101580000E940E13892F8A838B819AE0692F0E9413
:101590000E1389838C81282F30E03A87298789852B
:1015A0009A85009739F029853A852130310509F46B
:1015B00076C0E4C08981282F30E038872F838F815F
:1015C00098858230910561F12F813885233031056E
:1015D00034F48F8198858130910569F0CFC02F81D7
:1015E00038852330310589F18F81988584309105C4
:1015F00009F440C0C3C0ABE3B0E0EBE3F0E08081AE
:10160000482F8A81282F30E081E090E0022E02C02E
:10161000880F991F0A94E2F7809584238C93AEC0BB
:10162000A8E3B0E0E8E3F0E08081482F8A81282F2A
:1016300030E081E090E0022E02C0880F991F0A94EA
:10164000E2F7809584238C9399C0A5E3B0E0E5E3AD
:10165000F0E08081482F8A81282F30E081E090E0FF
:10166000022E02C0880F991F0A94E2F78095842306
:101670008C9384C0A2E3B0E0E2E3F0E08081482FE5
:101680008A81282F30E081E090E0022E02C0880F8E
:10169000991F0A94E2F7809584238C936FC0898107
:1016A000282F30E03E832D838D819E8182309105ED
:1016B00051F12D813E812330310534F48D819E819D
:1016C0008130910561F05AC02D813E812330310572
:1016D00071F18D819E8184309105E9F14FC0ABE3BA
:1016E000B0E0EBE3F0E08081482F8A81282F30E0E2
:1016F00081E090E0022E02C0880F991F0A94E2F761
:10170000842B8C933BC0A8E3B0E0E8E3F0E0808159
:10171000482F8A81282F30E081E090E0022E02C01D
:10172000880F991F0A94E2F7842B8C9327C0A5E3B6
:10173000B0E0E5E3F0E08081482F8A81282F30E097
:1017400081E090E0022E02C0880F991F0A94E2F710
:10175000842B8C9313C0A2E3B0E0E2E3F0E080813D
:10176000482F8A81282F30E081E090E0022E02C0CD
:10177000880F991F0A94E2F7842B8C932A960FB650
:10178000F894DEBF0FBECDBFCF91DF910895DF93F8
:10179000CF93CDB7DEB70E944A06CF91DF9108956F
:1017A000DF93CF9300D0CDB7DEB79A8389830E94B1
:1017B000850680ED0E94A10680E00E940F07E98166
:1017C000FA8180819AE0692F0E940E13882F90E0A1
:1017D00082959295907F9827807F9827282FE9817E
:1017E000FA8180819AE0692F0E940E13892F822B43
:1017F0008F770E940F07E981FA8181819AE0692F32
:101800000E940E13882F90E082959295907F9827E2
:10181000807F9827282FE981FA8181819AE0692FBA
:101820000E940E13892F822B0E940F07E981FA81F3
:1018300082819AE0692F0E940E13882F90E0829592
:101840009295907F9827807F9827282FE981FA81A9
:1018500082819AE0692F0E940E13892F822B8F7B41
:101860000E940F070E945E070F900F90CF91DF91AB
:101870000895DF93CF9300D0CDB7DEB79A838983E5
:101880000E94850680ED0E94A10683E00E940F075A
:10189000E981FA8183810E940F07E981FA818481BD
:1018A0009AE0692F0E940E13882F90E082959295FE
:1018B000907F9827807F9827282FE981FA8184815B
:1018C0009AE0692F0E940E13892F822B0E940F0726
:1018D000E981FA8185819AE0692F0E940E13882F91
:1018E00090E082959295907F9827807F9827282F67
:1018F000E981FA8185819AE0692F0E940E13892F70
:10190000822B0E940F07E981FA8186819AE0692F74
:101910000E940E13882F90E082959295907F9827D1
:10192000807F9827282FE981FA8186819AE0692FA4
:101930000E940E13892F822B0E940F070E945E07C0
:101940000F900F90CF91DF910895DF93CF9300D048
:1019500000D00F92CDB7DEB79D838C831B821A8295
:1019600019820E94850680ED0E94A10680E00E94F7
:101970000F070E94CA0681ED0E94E6060E94380702
:101980008B838B81482F4F708B8182958F70882F2E
:1019900090E090709C01220F331FC901880F991F9E
:1019A000880F991F820F931F840FEC81FD81808324
:1019B0000E9438078A838A81482F4F708A818295D6
:1019C0008F70882F90E090709C01220F331FC90107
:1019D000880F991F880F991F820F931F840FEC8126
:1019E000FD8181830E944B0789838981482F4F7035
:1019F000898182958F70882F90E090709C01220FD2
:101A0000331FC901880F991F880F991F820F931FD9
:101A1000840FEC81FD8182830E945E070F900F90FE
:101A20000F900F900F90CF91DF910895DF93CF9398
:101A300000D000D00F92CDB7DEB79D838C831B8280
:101A40001A8219820E94850680ED0E94A10683E019
:101A50000E940F070E94CA0681ED0E94E6060E94BE
:101A60003807EC81FD8183830E9438078B838B814B
:101A7000482F4F708B8182958F70882F90E09C014A
:101A8000220F331FC901880F991F880F991F820FDA
:101A9000931F840FEC81FD8184830E9438078A8321
:101AA0008A81482F4F708A8182958F70882F90E0AD
:101AB0009C01220F331FC901880F991F880F991F9E
:101AC000820F931F840FEC81FD8185830E944B0759
:101AD00089838981482F4F70898182958F70882FE3
:101AE00090E09C01220F331FC901880F991F880FB6
:101AF000991F820F931F840FEC81FD8186830E94C2
:101B00005E070F900F900F900F900F90CF91DF9185
:101B10000895DF93CF93CDB7DEB784E161E00E94F3
:101B2000720785E161E00E94720786E161E00E9430
:101B3000720788E161E00E9472078DE061E00E9417
:101B400072078CE061E00E94720783E30E94F30F4A
:101B500082E30E94F30F88E20E94F30F8CE00E9460
:101B6000F30F82E00E94F30F81E00E94F30FCF9108
:101B7000DF910895DF93CF93CDB7DEB7E9970FB626
:101B8000F894DEBF0FBECDBF89AF8DE061E00E944B
:101B9000880889AD82958F70982F917084E1692FA4
:101BA0000E94880889AD829586958770982F9170DC
:101BB00085E1692F0E94880889AD82958695869572
:101BC0008370982F917086E1692F0E94880889ADF3
:101BD000982F991F9927991F88E1692F0E948808DB
:101BE0008CE061E00E94880880E090E0A0E8BFE31C
:101BF0008DAB9EABAFABB8AF6DA97EA98FA998ADE9
:101C000020E030E04AE755E40E941702DC01CB01F6
:101C100089AB9AABABABBCAB69A97AA98BA99CA9E0
:101C200020E030E040E85FE30E94710388232CF459
:101C300081E090E098AB8FA73FC069A97AA98BA9F2
:101C40009CA920E03FEF4FE757E40E9411031816CC
:101C50004CF56DA97EA98FA998AD20E030E040E257
:101C600051E40E941702DC01CB01BC01CD010E94AE
:101C70004100DC01CB0198AB8FA70FC080E991E058
:101C80009EA78DA78DA59EA50197F1F79EA78DA76D
:101C90008FA598A9019798AB8FA78FA598A90097B2
:101CA00069F714C069A97AA98BA99CA90E9441006F
:101CB000DC01CB0198AB8FA78FA598A99CA78BA718
:101CC0008BA59CA50197F1F79CA78BA78CE060E002
:101CD0000E94880880E090E0A0E8BFE38FA398A767
:101CE000A9A7BAA76FA178A589A59AA520E030E099
:101CF0004AE755E40E941702DC01CB018BA39CA3A9
:101D0000ADA3BEA36BA17CA18DA19EA120E030E07C
:101D100040E85FE30E94710388232CF481E090E0A7
:101D20009AA389A33FC06BA17CA18DA19EA120E0B5
:101D30003FEF4FE757E40E94110318164CF56FA1CF
:101D400078A589A59AA520E030E040E251E40E9400
:101D50001702DC01CB01BC01CD010E944100DC0176
:101D6000CB019AA389A30FC080E991E098A38F8F3C
:101D70008F8D98A10197F1F798A38F8F89A19AA1D0
:101D800001979AA389A389A19AA1009769F714C022
:101D90006BA17CA18DA19EA10E944100DC01CB0121
:101DA0009AA389A389A19AA19E8F8D8F8D8D9E8DD7
:101DB0000197F1F79E8F8D8F89AD982F917084E1F7
:101DC000692F0E94880889AD8695982F917085E1CA
:101DD000692F0E94880889AD86958695982F917005
:101DE00086E1692F0E94880889AD8695869586953B
:101DF000982F917088E1692F0E9488088CE061E03B
:101E00000E94880880E090E0A0E8BFE3898F9A8F65
:101E1000AB8FBC8F698D7A8D8B8D9C8D20E030E0EF
:101E20004AE755E40E941702DC01CB018D8B9E8BA3
:101E3000AF8BB88F6D897E898F89988D20E030E0D7
:101E400040E85FE30E94710388232CF481E090E076
:101E50009C8B8B8B3FC06D897E898F89988D20E00C
:101E60003FEF4FE757E40E94110318164CF5698DB8
:101E70007A8D8B8D9C8D20E030E040E251E40E9411
:101E80001702DC01CB01BC01CD010E944100DC0145
:101E9000CB019C8B8B8B0FC080E991E09A8B898B57
:101EA00089899A890197F1F79A8B898B8B899C890B
:101EB00001979C8B8B8B8B899C89009769F714C049
:101EC0006D897E898F89988D0E944100DC01CB014C
:101ED0009C8B8B8B8B899C89988B8F878F8598891E
:101EE0000197F1F7988B8F878CE060E00E9488085B
:101EF00080E090E0A0EAB0E48B879C87AD87BE8746
:101F00006B857C858D859E8520E030E04AE755E431
:101F10000E941702DC01CB018F839887A987BA87BB
:101F20006F81788589859A8520E030E040E85FE31D
:101F30000E94710388232CF481E090E09E838D83BE
:101F40003FC06F81788589859A8520E03FEF4FE714
:101F500057E40E94110318164CF56B857C858D851E
:101F60009E8520E030E040E251E40E941702DC014F
:101F7000CB01BC01CD010E944100DC01CB019E835D
:101F80008D830FC080E991E09C838B838B819C8142
:101F90000197F1F79C838B838D819E8101979E83AE
:101FA0008D838D819E81009769F714C06F8178853C
:101FB00089859A850E944100DC01CB019E838D8337
:101FC0008D819E819A83898389819A810197F1F716
:101FD0009A838983E9960FB6F894DEBF0FBECDBF12
:101FE000CF91DF910895DF93CF93CDB7DEB7E99717
:101FF0000FB6F894DEBF0FBECDBF89AF8DE060E0B5
:102000000E94880889AD82958F70982F917084E125
:10201000692F0E94880889AD829586958770982FD0
:10202000917085E1692F0E94880889AD8295869517
:1020300086958370982F917086E1692F0E94880899
:1020400089AD982F991F9927991F88E1692F0E94C0
:1020500088088CE061E00E94880880E090E0A0E8B9
:10206000BFE38DAB9EABAFABB8AF6DA97EA98FA917
:1020700098AD20E030E04AE755E40E941702DC0109
:10208000CB0189AB9AABABABBCAB69A97AA98BA9E5
:102090009CA920E030E040E85FE30E9471038823C0
:1020A0002CF481E090E098AB8FA73FC069A97AA992
:1020B0008BA99CA920E03FEF4FE757E40E94110352
:1020C00018164CF56DA97EA98FA998AD20E030E0D7
:1020D00040E251E40E941702DC01CB01BC01CD01BA
:1020E0000E944100DC01CB0198AB8FA70FC080E9B3
:1020F00091E09EA78DA78DA59EA50197F1F79EA7BC
:102100008DA78FA598A9019798AB8FA78FA598A9A0
:10211000009769F714C069A97AA98BA99CA90E94A4
:102120004100DC01CB0198AB8FA78FA598A99CA794
:102130008BA78BA59CA50197F1F79CA78BA78CE09B
:1021400060E00E94880880E090E0A0E8BFE38FA3F1
:1021500098A7A9A7BAA76FA178A589A59AA520E0F5
:1021600030E04AE755E40E941702DC01CB018BA363
:102170009CA3ADA3BEA36BA17CA18DA19EA120E0D9
:1021800030E040E85FE30E94710388232CF481E093
:1021900090E09AA389A33FC06BA17CA18DA19EA1D1
:1021A00020E03FEF4FE757E40E94110318164CF56B
:1021B0006FA178A589A59AA520E030E040E251E41E
:1021C0000E941702DC01CB01BC01CD010E9441003D
:1021D000DC01CB019AA389A30FC080E991E098A309
:1021E0008F8F8F8D98A10197F1F798A38F8F89A179
:1021F0009AA101979AA389A389A19AA1009769F747
:1022000014C06BA17CA18DA19EA10E944100DC01A4
:10221000CB019AA389A389A19AA19E8F8D8F8D8DC1
:102220009E8D0197F1F79E8F8D8F89AD982F9170BC
:1022300084E1692F0E94880889AD8695982F917056
:1022400085E1692F0E94880889AD86958695982F2B
:10225000917086E1692F0E94880889AD86958695E0
:102260008695982F917088E1692F0E9488088CE0EC
:1022700061E00E94880880E090E0A0E8BFE3898FD9
:102280009A8FAB8FBC8F698D7A8D8B8D9C8D20E062
:1022900030E04AE755E40E941702DC01CB018D8B48
:1022A0009E8BAF8BB88F6D897E898F89988D20E04A
:1022B00030E040E85FE30E94710388232CF481E062
:1022C00090E09C8B8B8B3FC06D897E898F89988D28
:1022D00020E03FEF4FE757E40E94110318164CF53A
:1022E000698D7A8D8B8D9C8D20E030E040E251E449
:1022F0000E941702DC01CB01BC01CD010E9441000C
:10230000DC01CB019C8B8B8B0FC080E991E09A8B19
:10231000898B89899A890197F1F79A8B898B8B89A7
:102320009C8901979C8B8B8B8B899C89009769F783
:1023300014C06D897E898F89988D0E944100DC01CF
:10234000CB019C8B8B8B8B899C89988B8F878F85FE
:1023500098890197F1F7988B8F878CE060E00E9455
:10236000880880E090E0A0EAB0E48B879C87AD8786
:10237000BE876B857C858D859E8520E030E04AE7B1
:1023800055E40E941702DC01CB018F839887A9874F
:10239000BA876F81788589859A8520E030E040E8AA
:1023A0005FE30E94710388232CF481E090E09E8318
:1023B0008D833FC06F81788589859A8520E03FEFC6
:1023C0004FE757E40E94110318164CF56B857C8586
:1023D0008D859E8520E030E040E251E40E941702A6
:1023E000DC01CB01BC01CD010E944100DC01CB012D
:1023F0009E838D830FC080E991E09C838B838B81CA
:102400009C810197F1F79C838B838D819E8101973D
:102410009E838D838D819E81009769F714C06F81A3
:10242000788589859A850E944100DC01CB019E83D5
:102430008D838D819E819A83898389819A81019779
:10244000F1F79A838983E9960FB6F894DEBF0FBE41
:10245000CDBFCF91DF910895DF93CF9300D00F923E
:10246000CDB7DEB79B838A8319820EC08981282F5E
:1024700030E08A819B81FC01E20FF31F80810E9482
:10248000BA0D89818F5F89838981282F30E08A8105
:102490009B81FC01E20FF31F8081882339F70F90A5
:1024A0000F900F90CF91DF910895DF93CF93CDB729
:1024B000DEB781E00E94F30FCF91DF9108950F9373
:1024C0001F93DF93CF93CDB7DEB72F970FB6F89456
:1024D000DEBF0FBECDBF6C877D878E879F87198239
:1024E0008AE0FE013296DF01982F1D929A95E9F756
:1024F0008C859D85AE85BF85BB2394F48C859D8599
:10250000AE85BF85B095A095909581959F4FAF4FB3
:10251000BF4F8C879D87AE87BF878DE20E94BA0D23
:102520008981082F112707FD10958C859D85AE8523
:10253000BF852AE030E040E050E0BC01CD010E94C0
:102540003C13DC01CB01282FCE010296FC01E00FE9
:10255000F11F20838C859D85AE85BF852AE030E004
:1025600040E050E0BC01CD010E943C13DA01C901FA
:102570008C879D87AE87BF8789818F5F89838C8594
:102580009D85AE85BF850097A105B10549F611C0AF
:102590008981815089838981282F332727FD3095B0
:1025A000CE010296FC01E20FF31F8081805D0E9444
:1025B000BA0D8981181664F32F960FB6F894DEBF12
:1025C0000FBECDBFCF91DF911F910F910895DF9383
:1025D000CF9300D000D000D0CDB7DEB78D836E830F
:1025E00080E8898380EC8A8384E98B8384ED8C8303
:1025F0008D81282F30E0CE010196FC01E20FF31F00
:1026000090818E81890F0E94F30F26960FB6F89461
:10261000DEBF0FBECDBFCF91DF910895991B79E04A
:1026200004C0991F961708F0961B881F7A95C9F762
:1026300080950895A1E21A2EAA1BBB1BFD010DC0B7
:10264000AA1FBB1FEE1FFF1FA217B307E407F50762
:1026500020F0A21BB30BE40BF50B661F771F881F3E
:10266000991F1A9469F760957095809590959B01D4
:10267000AC01BD01CF01089597FB092E05260ED0B0
:1026800057FD04D0D7DF0AD0001C38F45095409590
:10269000309521953F4F4F4F5F4F0895F6F7909536
:1026A0008095709561957F4F8F4F9F4F08952F9222
:1026B0003F924F925F926F927F928F929F92AF92D2
:1026C000BF92CF92DF92EF92FF920F931F93CF931F
:1026D000DF93CDB7DEB7CA1BDB0B0FB6F894DEBFB6
:1026E0000FBECDBF09942A88398848885F846E84DC
:1026F0007D848C849B84AA84B984C884DF80EE8026
:10270000FD800C811B81AA81B981CE0FD11D0FB62E
:10271000F894DEBF0FBECDBFED010895F894FFCF52
:1027200000000000000000005341540053554E00CB
:102730004D4F4E005455450057454E0054485500E6
:0427400046524900B4
:00000001FF
